{
  "_format": "hh-sol-artifact-1",
  "contractName": "KotF",
  "sourceName": "contracts/KotF.sol",
  "abi": [
    {
      "anonymous": false,
      "inputs": [
        {
          "indexed": false,
          "internalType": "address",
          "name": "newfool",
          "type": "address"
        },
        {
          "indexed": false,
          "internalType": "uint256",
          "name": "newprice",
          "type": "uint256"
        }
      ],
      "name": "NewFool",
      "type": "event"
    },
    {
      "inputs": [],
      "name": "BecomeFool",
      "outputs": [],
      "stateMutability": "payable",
      "type": "function"
    },
    {
      "inputs": [],
      "name": "currentFool",
      "outputs": [
        {
          "internalType": "address payable",
          "name": "",
          "type": "address"
        }
      ],
      "stateMutability": "view",
      "type": "function"
    },
    {
      "inputs": [],
      "name": "currentPrice",
      "outputs": [
        {
          "internalType": "uint256",
          "name": "",
          "type": "uint256"
        }
      ],
      "stateMutability": "view",
      "type": "function"
    },
    {
      "stateMutability": "payable",
      "type": "receive"
    }
  ],
  "bytecode": "0x608060405234801561001057600080fd5b506106d9806100206000396000f3fe6080604052600436106100385760003560e01c80636c9ee5111461007d5780639d1b464a146100a85780639e249a9f146100d357610078565b36610078576040517f08c379a000000000000000000000000000000000000000000000000000000000815260040161006f906103ae565b60405180910390fd5b600080fd5b34801561008957600080fd5b506100926100dd565b60405161009f919061040f565b60405180910390f35b3480156100b457600080fd5b506100bd610101565b6040516100ca9190610443565b60405180910390f35b6100db610107565b005b60008054906101000a900473ffffffffffffffffffffffffffffffffffffffff1681565b60015481565b600073ffffffffffffffffffffffffffffffffffffffff1660008054906101000a900473ffffffffffffffffffffffffffffffffffffffff1673ffffffffffffffffffffffffffffffffffffffff16036101a3576000341161019e576040517f08c379a0000000000000000000000000000000000000000000000000000000008152600401610195906104aa565b60405180910390fd5b6102cf565b60036001546101b291906104f9565b3460026101bf91906104f9565b1015610200576040517f08c379a00000000000000000000000000000000000000000000000000000000081526004016101f790610587565b60405180910390fd5b60008060009054906101000a900473ffffffffffffffffffffffffffffffffffffffff1673ffffffffffffffffffffffffffffffffffffffff1634604051610247906105d8565b60006040518083038185875af1925050503d8060008114610284576040519150601f19603f3d011682016040523d82523d6000602084013e610289565b606091505b50509050806102cd576040517f08c379a00000000000000000000000000000000000000000000000000000000081526004016102c490610639565b60405180910390fd5b505b336000806101000a81548173ffffffffffffffffffffffffffffffffffffffff021916908373ffffffffffffffffffffffffffffffffffffffff160217905550346001819055507fa21761102b73dbfb60c353d336b0f3f1348c07726893a7678a73733b10041262333460405161034792919061067a565b60405180910390a1565b600082825260208201905092915050565b7f44696420796f75206d65616e20746f204265636f6d65466f6f6c3f0000000000600082015250565b6000610398601b83610351565b91506103a382610362565b602082019050919050565b600060208201905081810360008301526103c78161038b565b9050919050565b600073ffffffffffffffffffffffffffffffffffffffff82169050919050565b60006103f9826103ce565b9050919050565b610409816103ee565b82525050565b60006020820190506104246000830184610400565b92915050565b6000819050919050565b61043d8161042a565b82525050565b60006020820190506104586000830184610434565b92915050565b7f457468657220616d6f756e742073656e742069732077726f6e67000000000000600082015250565b6000610494601a83610351565b915061049f8261045e565b602082019050919050565b600060208201905081810360008301526104c381610487565b9050919050565b7f4e487b7100000000000000000000000000000000000000000000000000000000600052601160045260246000fd5b60006105048261042a565b915061050f8361042a565b925082820261051d8161042a565b91508282048414831517610534576105336104ca565b5b5092915050565b7f457468657220616d6f756e74206e6f7420656e6f756768000000000000000000600082015250565b6000610571601783610351565b915061057c8261053b565b602082019050919050565b600060208201905081810360008301526105a081610564565b9050919050565b600081905092915050565b50565b60006105c26000836105a7565b91506105cd826105b2565b600082019050919050565b60006105e3826105b5565b9150819050919050565b7f4661696c656420746f2073656e64204574686572000000000000000000000000600082015250565b6000610623601483610351565b915061062e826105ed565b602082019050919050565b6000602082019050818103600083015261065281610616565b9050919050565b6000610664826103ce565b9050919050565b61067481610659565b82525050565b600060408201905061068f600083018561066b565b61069c6020830184610434565b939250505056fea26469706673582212205f444e494d8deaaac33adabb9a17214b6d70338dd2a078edb86a573ea2b7cf0164736f6c63430008110033",
  "linkReferences": {},
  "deployedLinkReferences": {}
}