{
  "_format": "hh-sol-artifact-1",
  "contractName": "KotF",
  "sourceName": "contracts/KotF.sol",
  "abi": [
    {
      "inputs": [],
      "name": "FailedEtherTransfer",
      "type": "error"
    },
    {
      "inputs": [],
      "name": "Unauthorized",
      "type": "error"
    },
    {
      "inputs": [],
      "name": "WrongValue",
      "type": "error"
    },
    {
      "anonymous": false,
      "inputs": [
        {
          "indexed": true,
          "internalType": "address",
          "name": "newfool",
          "type": "address"
        },
        {
          "indexed": true,
          "internalType": "uint256",
          "name": "newprice",
          "type": "uint256"
        }
      ],
      "name": "NewFool",
      "type": "event"
    },
    {
      "inputs": [],
      "name": "BecomeFool",
      "outputs": [],
      "stateMutability": "payable",
      "type": "function"
    },
    {
      "inputs": [],
      "name": "currentFool",
      "outputs": [
        {
          "internalType": "address payable",
          "name": "",
          "type": "address"
        }
      ],
      "stateMutability": "view",
      "type": "function"
    },
    {
      "inputs": [],
      "name": "currentPrice",
      "outputs": [
        {
          "internalType": "uint256",
          "name": "",
          "type": "uint256"
        }
      ],
      "stateMutability": "view",
      "type": "function"
    },
    {
      "stateMutability": "payable",
      "type": "receive"
    }
  ],
  "bytecode": "0x608060405234801561001057600080fd5b5061046b806100206000396000f3fe6080604052600436106100385760003560e01c80636c9ee511146100745780639d1b464a1461009f5780639e249a9f146100ca5761006f565b3661006f576040517f82b4290000000000000000000000000000000000000000000000000000000000815260040160405180910390fd5b600080fd5b34801561008057600080fd5b506100896100d4565b604051610096919061032f565b60405180910390f35b3480156100ab57600080fd5b506100b46100f8565b6040516100c19190610363565b60405180910390f35b6100d26100fe565b005b60008054906101000a900473ffffffffffffffffffffffffffffffffffffffff1681565b60015481565b6000600154036101475760003403610142576040517f23610bf000000000000000000000000000000000000000000000000000000000815260040160405180910390fd5b610261565b600360015461015691906103ad565b34600261016391906103ad565b101561019b576040517f98d4901c00000000000000000000000000000000000000000000000000000000815260040160405180910390fd5b60008060009054906101000a900473ffffffffffffffffffffffffffffffffffffffff1673ffffffffffffffffffffffffffffffffffffffff16346040516101e290610420565b60006040518083038185875af1925050503d806000811461021f576040519150601f19603f3d011682016040523d82523d6000602084013e610224565b606091505b505090508061025f576040517f23610bf000000000000000000000000000000000000000000000000000000000815260040160405180910390fd5b505b336000806101000a81548173ffffffffffffffffffffffffffffffffffffffff021916908373ffffffffffffffffffffffffffffffffffffffff16021790555034600181905550343373ffffffffffffffffffffffffffffffffffffffff167fa21761102b73dbfb60c353d336b0f3f1348c07726893a7678a73733b1004126260405160405180910390a3565b600073ffffffffffffffffffffffffffffffffffffffff82169050919050565b6000610319826102ee565b9050919050565b6103298161030e565b82525050565b60006020820190506103446000830184610320565b92915050565b6000819050919050565b61035d8161034a565b82525050565b60006020820190506103786000830184610354565b92915050565b7f4e487b7100000000000000000000000000000000000000000000000000000000600052601160045260246000fd5b60006103b88261034a565b91506103c38361034a565b92508282026103d18161034a565b915082820484148315176103e8576103e761037e565b5b5092915050565b600081905092915050565b50565b600061040a6000836103ef565b9150610415826103fa565b600082019050919050565b600061042b826103fd565b915081905091905056fea2646970667358221220f89d671e8ac829f7cca4e93a8bcef201e82b32e23164b50564a52d6d615de7d064736f6c63430008110033",
  "linkReferences": {},
  "deployedLinkReferences": {}
}